{
  "contractName": "TodoList",
  "abi": [
    {
      "inputs": [],
      "stateMutability": "nonpayable",
      "type": "constructor"
    },
    {
      "anonymous": false,
      "inputs": [
        {
          "indexed": true,
          "internalType": "address",
          "name": "previousOwner",
          "type": "address"
        },
        {
          "indexed": true,
          "internalType": "address",
          "name": "newOwner",
          "type": "address"
        }
      ],
      "name": "OwnershipTransferred",
      "type": "event"
    },
    {
      "anonymous": false,
      "inputs": [
        {
          "indexed": false,
          "internalType": "uint256",
          "name": "id",
          "type": "uint256"
        },
        {
          "indexed": false,
          "internalType": "bool",
          "name": "completed",
          "type": "bool"
        }
      ],
      "name": "TodoCompleted",
      "type": "event"
    },
    {
      "anonymous": false,
      "inputs": [
        {
          "indexed": false,
          "internalType": "uint256",
          "name": "id",
          "type": "uint256"
        },
        {
          "indexed": false,
          "internalType": "string",
          "name": "content",
          "type": "string"
        },
        {
          "indexed": false,
          "internalType": "bool",
          "name": "completed",
          "type": "bool"
        }
      ],
      "name": "TodoCreated",
      "type": "event"
    },
    {
      "anonymous": false,
      "inputs": [
        {
          "indexed": false,
          "internalType": "uint256",
          "name": "_id",
          "type": "uint256"
        },
        {
          "indexed": false,
          "internalType": "bool",
          "name": "isExist",
          "type": "bool"
        }
      ],
      "name": "TodoDeleted",
      "type": "event"
    },
    {
      "inputs": [],
      "name": "owner",
      "outputs": [
        {
          "internalType": "address",
          "name": "",
          "type": "address"
        }
      ],
      "stateMutability": "view",
      "type": "function",
      "constant": true
    },
    {
      "inputs": [],
      "name": "renounceOwnership",
      "outputs": [],
      "stateMutability": "nonpayable",
      "type": "function"
    },
    {
      "inputs": [],
      "name": "todoCount",
      "outputs": [
        {
          "internalType": "uint256",
          "name": "",
          "type": "uint256"
        }
      ],
      "stateMutability": "view",
      "type": "function",
      "constant": true
    },
    {
      "inputs": [
        {
          "internalType": "uint256",
          "name": "",
          "type": "uint256"
        }
      ],
      "name": "todos",
      "outputs": [
        {
          "internalType": "uint256",
          "name": "id",
          "type": "uint256"
        },
        {
          "internalType": "string",
          "name": "content",
          "type": "string"
        },
        {
          "internalType": "bool",
          "name": "completed",
          "type": "bool"
        },
        {
          "internalType": "bool",
          "name": "isExist",
          "type": "bool"
        }
      ],
      "stateMutability": "view",
      "type": "function",
      "constant": true
    },
    {
      "inputs": [
        {
          "internalType": "address",
          "name": "newOwner",
          "type": "address"
        }
      ],
      "name": "transferOwnership",
      "outputs": [],
      "stateMutability": "nonpayable",
      "type": "function"
    },
    {
      "inputs": [
        {
          "internalType": "uint256",
          "name": "id",
          "type": "uint256"
        }
      ],
      "name": "getTodo",
      "outputs": [
        {
          "components": [
            {
              "internalType": "uint256",
              "name": "id",
              "type": "uint256"
            },
            {
              "internalType": "string",
              "name": "content",
              "type": "string"
            },
            {
              "internalType": "bool",
              "name": "completed",
              "type": "bool"
            },
            {
              "internalType": "bool",
              "name": "isExist",
              "type": "bool"
            }
          ],
          "internalType": "struct TodoList.Todo",
          "name": "",
          "type": "tuple"
        }
      ],
      "stateMutability": "view",
      "type": "function",
      "constant": true
    },
    {
      "inputs": [
        {
          "internalType": "string",
          "name": "_content",
          "type": "string"
        }
      ],
      "name": "createTodo",
      "outputs": [],
      "stateMutability": "payable",
      "type": "function",
      "payable": true
    },
    {
      "inputs": [
        {
          "internalType": "uint256",
          "name": "_id",
          "type": "uint256"
        }
      ],
      "name": "toggleCompleted",
      "outputs": [],
      "stateMutability": "payable",
      "type": "function",
      "payable": true
    },
    {
      "inputs": [
        {
          "internalType": "uint256",
          "name": "_id",
          "type": "uint256"
        },
        {
          "internalType": "string",
          "name": "_content",
          "type": "string"
        }
      ],
      "name": "editTodo",
      "outputs": [],
      "stateMutability": "payable",
      "type": "function",
      "payable": true
    },
    {
      "inputs": [
        {
          "internalType": "uint256",
          "name": "_id",
          "type": "uint256"
        }
      ],
      "name": "deleteTodo",
      "outputs": [],
      "stateMutability": "payable",
      "type": "function",
      "payable": true
    },
    {
      "inputs": [
        {
          "internalType": "address",
          "name": "_user",
          "type": "address"
        }
      ],
      "name": "hasUserAccountOwner",
      "outputs": [
        {
          "internalType": "bool",
          "name": "",
          "type": "bool"
        }
      ],
      "stateMutability": "view",
      "type": "function",
      "constant": true
    }
  ],
  "bytecode": "0x608060405260006001553480156200001657600080fd5b50620000376200002b6200008360201b60201c565b6200008b60201b60201c565b6200007d6040518060400160405280601281526020017f4d61726b657465206769746d656c6973696e00000000000000000000000000008152506200014f60201b60201c565b62000508565b600033905090565b60008060009054906101000a900473ffffffffffffffffffffffffffffffffffffffff169050816000806101000a81548173ffffffffffffffffffffffffffffffffffffffff021916908373ffffffffffffffffffffffffffffffffffffffff1602179055508173ffffffffffffffffffffffffffffffffffffffff168173ffffffffffffffffffffffffffffffffffffffff167f8be0079c531659141344cd1fd0a4f28419497f9722a3daafe3b4186f6b6457e060405160405180910390a35050565b6001600081548092919062000164906200033f565b91905055506040518060800160405280600154815260200182815260200160001515815260200160011515815250600260006001548152602001908152602001600020600082015181600001556020820151816001019080519060200190620001cf92919062000256565b5060408201518160020160006101000a81548160ff02191690831515021790555060608201518160020160016101000a81548160ff0219169083151502179055509050507f216b7b554cc6be0fbaed756f9b62e83e41a91839dc1556b845c14d0f670366466001548260006040516200024b939291906200045f565b60405180910390a150565b8280546200026490620004d2565b90600052602060002090601f016020900481019282620002885760008555620002d4565b82601f10620002a357805160ff1916838001178555620002d4565b82800160010185558215620002d4579182015b82811115620002d3578251825591602001919060010190620002b6565b5b509050620002e39190620002e7565b5090565b5b8082111562000302576000816000905550600101620002e8565b5090565b7f4e487b7100000000000000000000000000000000000000000000000000000000600052601160045260246000fd5b6000819050919050565b60006200034c8262000335565b91507fffffffffffffffffffffffffffffffffffffffffffffffffffffffffffffffff82141562000382576200038162000306565b5b600182019050919050565b620003988162000335565b82525050565b600081519050919050565b600082825260208201905092915050565b60005b83811015620003da578082015181840152602081019050620003bd565b83811115620003ea576000848401525b50505050565b6000601f19601f8301169050919050565b60006200040e826200039e565b6200041a8185620003a9565b93506200042c818560208601620003ba565b6200043781620003f0565b840191505092915050565b60008115159050919050565b620004598162000442565b82525050565b60006060820190506200047660008301866200038d565b81810360208301526200048a818562000401565b90506200049b60408301846200044e565b949350505050565b7f4e487b7100000000000000000000000000000000000000000000000000000000600052602260045260246000fd5b60006002820490506001821680620004eb57607f821691505b60208210811415620005025762000501620004a3565b5b50919050565b6115c680620005186000396000f3fe60806040526004361061009c5760003560e01c8063901ee0b811610064578063901ee0b814610158578063bc8bc2b414610174578063dd68afb6146101b4578063e34f1221146101f1578063f2fde38b1461020d578063fe0dee17146102365761009c565b8063455f5024146100a1578063660e94f9146100bd5780636e3c6738146100fa578063715018a6146101165780638da5cb5b1461012d575b600080fd5b6100bb60048036038101906100b69190610e64565b610261565b005b3480156100c957600080fd5b506100e460048036038101906100df9190610eef565b610429565b6040516100f19190610f37565b60405180910390f35b610114600480360381019061010f9190610e64565b610468565b005b34801561012257600080fd5b5061012b61062c565b005b34801561013957600080fd5b506101426106b4565b60405161014f9190610f61565b60405180910390f35b610172600480360381019061016d91906110c2565b6106dd565b005b34801561018057600080fd5b5061019b60048036038101906101969190610e64565b6108af565b6040516101ab94939291906111b5565b60405180910390f35b3480156101c057600080fd5b506101db60048036038101906101d69190610e64565b610981565b6040516101e891906112cc565b60405180910390f35b61020b600480360381019061020691906112ee565b610a80565b005b34801561021957600080fd5b50610234600480360381019061022f9190610eef565b610b81565b005b34801561024257600080fd5b5061024b610c79565b6040516102589190611337565b60405180910390f35b6000600260008381526020019081526020016000206040518060800160405290816000820154815260200160018201805461029b90611381565b80601f01602080910402602001604051908101604052809291908181526020018280546102c790611381565b80156103145780601f106102e957610100808354040283529160200191610314565b820191906000526020600020905b8154815290600101906020018083116102f757829003601f168201915b505050505081526020016002820160009054906101000a900460ff161515151581526020016002820160019054906101000a900460ff161515151581525050905080604001511581604001901515908115158152505080600260008481526020019081526020016000206000820151816000015560208201518160010190805190602001906103a4929190610d4b565b5060408201518160020160006101000a81548160ff02191690831515021790555060608201518160020160016101000a81548160ff0219169083151502179055509050507fb84a3507a15618a089880b44621cbac93a5991ec03f5e02e0c0b70273f94e71c82826040015160405161041d9291906113b3565b60405180910390a15050565b60006104336106b4565b73ffffffffffffffffffffffffffffffffffffffff168273ffffffffffffffffffffffffffffffffffffffff16149050919050565b600060026000838152602001908152602001600020604051806080016040529081600082015481526020016001820180546104a290611381565b80601f01602080910402602001604051908101604052809291908181526020018280546104ce90611381565b801561051b5780601f106104f05761010080835404028352916020019161051b565b820191906000526020600020905b8154815290600101906020018083116104fe57829003601f168201915b505050505081526020016002820160009054906101000a900460ff161515151581526020016002820160019054906101000a900460ff1615151515815250509050600081606001901515908115158152505080600260008481526020019081526020016000206000820151816000015560208201518160010190805190602001906105a7929190610d4b565b5060408201518160020160006101000a81548160ff02191690831515021790555060608201518160020160016101000a81548160ff0219169083151502179055509050507fb85b66cc936d81ff1af81b8937ab9f981a060e7db51267ec0784d6dcdcb576408282606001516040516106209291906113b3565b60405180910390a15050565b610634610c7f565b73ffffffffffffffffffffffffffffffffffffffff166106526106b4565b73ffffffffffffffffffffffffffffffffffffffff16146106a8576040517f08c379a000000000000000000000000000000000000000000000000000000000815260040161069f90611428565b60405180910390fd5b6106b26000610c87565b565b60008060009054906101000a900473ffffffffffffffffffffffffffffffffffffffff16905090565b6000600260008481526020019081526020016000206040518060800160405290816000820154815260200160018201805461071790611381565b80601f016020809104026020016040519081016040528092919081815260200182805461074390611381565b80156107905780601f1061076557610100808354040283529160200191610790565b820191906000526020600020905b81548152906001019060200180831161077357829003601f168201915b505050505081526020016002820160009054906101000a900460ff161515151581526020016002820160019054906101000a900460ff16151515158152505090508060400151158160400190151590811515815250508181602001819052508060026000858152602001908152602001600020600082015181600001556020820151816001019080519060200190610829929190610d4b565b5060408201518160020160006101000a81548160ff02191690831515021790555060608201518160020160016101000a81548160ff0219169083151502179055509050507fb84a3507a15618a089880b44621cbac93a5991ec03f5e02e0c0b70273f94e71c8382604001516040516108a29291906113b3565b60405180910390a1505050565b60026020528060005260406000206000915090508060000154908060010180546108d890611381565b80601f016020809104026020016040519081016040528092919081815260200182805461090490611381565b80156109515780601f1061092657610100808354040283529160200191610951565b820191906000526020600020905b81548152906001019060200180831161093457829003601f168201915b5050505050908060020160009054906101000a900460ff16908060020160019054906101000a900460ff16905084565b610989610dd1565b60026000838152602001908152602001600020604051806080016040529081600082015481526020016001820180546109c190611381565b80601f01602080910402602001604051908101604052809291908181526020018280546109ed90611381565b8015610a3a5780601f10610a0f57610100808354040283529160200191610a3a565b820191906000526020600020905b815481529060010190602001808311610a1d57829003601f168201915b505050505081526020016002820160009054906101000a900460ff161515151581526020016002820160019054906101000a900460ff1615151515815250509050919050565b60016000815480929190610a9390611477565b91905055506040518060800160405280600154815260200182815260200160001515815260200160011515815250600260006001548152602001908152602001600020600082015181600001556020820151816001019080519060200190610afc929190610d4b565b5060408201518160020160006101000a81548160ff02191690831515021790555060608201518160020160016101000a81548160ff0219169083151502179055509050507f216b7b554cc6be0fbaed756f9b62e83e41a91839dc1556b845c14d0f67036646600154826000604051610b76939291906114c0565b60405180910390a150565b610b89610c7f565b73ffffffffffffffffffffffffffffffffffffffff16610ba76106b4565b73ffffffffffffffffffffffffffffffffffffffff1614610bfd576040517f08c379a0000000000000000000000000000000000000000000000000000000008152600401610bf490611428565b60405180910390fd5b600073ffffffffffffffffffffffffffffffffffffffff168173ffffffffffffffffffffffffffffffffffffffff161415610c6d576040517f08c379a0000000000000000000000000000000000000000000000000000000008152600401610c6490611570565b60405180910390fd5b610c7681610c87565b50565b60015481565b600033905090565b60008060009054906101000a900473ffffffffffffffffffffffffffffffffffffffff169050816000806101000a81548173ffffffffffffffffffffffffffffffffffffffff021916908373ffffffffffffffffffffffffffffffffffffffff1602179055508173ffffffffffffffffffffffffffffffffffffffff168173ffffffffffffffffffffffffffffffffffffffff167f8be0079c531659141344cd1fd0a4f28419497f9722a3daafe3b4186f6b6457e060405160405180910390a35050565b828054610d5790611381565b90600052602060002090601f016020900481019282610d795760008555610dc0565b82601f10610d9257805160ff1916838001178555610dc0565b82800160010185558215610dc0579182015b82811115610dbf578251825591602001919060010190610da4565b5b509050610dcd9190610dfd565b5090565b604051806080016040528060008152602001606081526020016000151581526020016000151581525090565b5b80821115610e16576000816000905550600101610dfe565b5090565b6000604051905090565b600080fd5b600080fd5b6000819050919050565b610e4181610e2e565b8114610e4c57600080fd5b50565b600081359050610e5e81610e38565b92915050565b600060208284031215610e7a57610e79610e24565b5b6000610e8884828501610e4f565b91505092915050565b600073ffffffffffffffffffffffffffffffffffffffff82169050919050565b6000610ebc82610e91565b9050919050565b610ecc81610eb1565b8114610ed757600080fd5b50565b600081359050610ee981610ec3565b92915050565b600060208284031215610f0557610f04610e24565b5b6000610f1384828501610eda565b91505092915050565b60008115159050919050565b610f3181610f1c565b82525050565b6000602082019050610f4c6000830184610f28565b92915050565b610f5b81610eb1565b82525050565b6000602082019050610f766000830184610f52565b92915050565b600080fd5b600080fd5b6000601f19601f8301169050919050565b7f4e487b7100000000000000000000000000000000000000000000000000000000600052604160045260246000fd5b610fcf82610f86565b810181811067ffffffffffffffff82111715610fee57610fed610f97565b5b80604052505050565b6000611001610e1a565b905061100d8282610fc6565b919050565b600067ffffffffffffffff82111561102d5761102c610f97565b5b61103682610f86565b9050602081019050919050565b82818337600083830152505050565b600061106561106084611012565b610ff7565b90508281526020810184848401111561108157611080610f81565b5b61108c848285611043565b509392505050565b600082601f8301126110a9576110a8610f7c565b5b81356110b9848260208601611052565b91505092915050565b600080604083850312156110d9576110d8610e24565b5b60006110e785828601610e4f565b925050602083013567ffffffffffffffff81111561110857611107610e29565b5b61111485828601611094565b9150509250929050565b61112781610e2e565b82525050565b600081519050919050565b600082825260208201905092915050565b60005b8381101561116757808201518184015260208101905061114c565b83811115611176576000848401525b50505050565b60006111878261112d565b6111918185611138565b93506111a1818560208601611149565b6111aa81610f86565b840191505092915050565b60006080820190506111ca600083018761111e565b81810360208301526111dc818661117c565b90506111eb6040830185610f28565b6111f86060830184610f28565b95945050505050565b61120a81610e2e565b82525050565b600082825260208201905092915050565b600061122c8261112d565b6112368185611210565b9350611246818560208601611149565b61124f81610f86565b840191505092915050565b61126381610f1c565b82525050565b60006080830160008301516112816000860182611201565b50602083015184820360208601526112998282611221565b91505060408301516112ae604086018261125a565b5060608301516112c1606086018261125a565b508091505092915050565b600060208201905081810360008301526112e68184611269565b905092915050565b60006020828403121561130457611303610e24565b5b600082013567ffffffffffffffff81111561132257611321610e29565b5b61132e84828501611094565b91505092915050565b600060208201905061134c600083018461111e565b92915050565b7f4e487b7100000000000000000000000000000000000000000000000000000000600052602260045260246000fd5b6000600282049050600182168061139957607f821691505b602082108114156113ad576113ac611352565b5b50919050565b60006040820190506113c8600083018561111e565b6113d56020830184610f28565b9392505050565b7f4f776e61626c653a2063616c6c6572206973206e6f7420746865206f776e6572600082015250565b6000611412602083611138565b915061141d826113dc565b602082019050919050565b6000602082019050818103600083015261144181611405565b9050919050565b7f4e487b7100000000000000000000000000000000000000000000000000000000600052601160045260246000fd5b600061148282610e2e565b91507fffffffffffffffffffffffffffffffffffffffffffffffffffffffffffffffff8214156114b5576114b4611448565b5b600182019050919050565b60006060820190506114d5600083018661111e565b81810360208301526114e7818561117c565b90506114f66040830184610f28565b949350505050565b7f4f776e61626c653a206e6577206f776e657220697320746865207a65726f206160008201527f6464726573730000000000000000000000000000000000000000000000000000602082015250565b600061155a602683611138565b9150611565826114fe565b604082019050919050565b600060208201905081810360008301526115898161154d565b905091905056fea2646970667358221220f6efa3203399e6cd70c0a5c3bf6e0085f7ed8e7015c0451674179dbac31727cd64736f6c634300080b0033",
  "immutableReferences": {},
  "source": "// SPDX-License-Identifier: GPL-3.0\npragma solidity >=0.8.0;\n\nimport \"@openzeppelin/contracts/access/Ownable.sol\";\n\ncontract TodoList is Ownable {\n    uint256 public todoCount = 0;\n\n    struct Todo {\n        uint256 id;\n        string content;\n        bool completed;\n        bool isExist;\n    }\n\n    mapping(uint256 => Todo) public todos;\n\n    event TodoCreated(uint256 id, string content, bool completed);\n\n    event TodoCompleted(uint256 id, bool completed);\n\n    event TodoDeleted(uint256 _id, bool isExist);\n\n    constructor() {\n        createTodo(\"Markete gitmelisin\");\n    }\n\n    function getTodo(uint256 id) public view returns (Todo memory) {\n        return todos[id];\n    }\n\n    function createTodo(string memory _content) public payable {\n        todoCount++;\n        todos[todoCount] = Todo(todoCount, _content, false, true);\n        emit TodoCreated(todoCount, _content, false);\n    }\n\n    function toggleCompleted(uint256 _id) public payable {\n        Todo memory _todo = todos[_id];\n        _todo.completed = !_todo.completed;\n        todos[_id] = _todo;\n        emit TodoCompleted(_id, _todo.completed);\n    }\n\n    function editTodo(uint256 _id, string memory _content) public payable {\n        Todo memory todo = todos[_id];\n        todo.completed = !todo.completed;\n        todo.content = _content;\n\n        todos[_id] = todo;\n        emit TodoCompleted(_id, todo.completed);\n    }\n\n    function deleteTodo(uint256 _id) public payable {\n        Todo memory todo = todos[_id];\n        todo.isExist = false;\n\n        todos[_id] = todo;\n        emit TodoDeleted(_id, todo.isExist);\n    }\n\n    function hasUserAccountOwner(address _user) public view returns (bool) {\n        return _user == owner();\n    }\n}\n",
  "sourcePath": "/Users/afozbek/Desktop/projects/eth-todo-list/truffle/contracts/TodoList.sol",
  "compiler": {
    "name": "solc",
    "version": "0.8.11+commit.d7f03943.Emscripten.clang"
  },
  "schemaVersion": "3.4.4",
  "updatedAt": "2022-02-21T15:04:37.553Z",
  "networkType": "ethereum",
  "devdoc": {
    "kind": "dev",
    "methods": {
      "owner()": {
        "details": "Returns the address of the current owner."
      },
      "renounceOwnership()": {
        "details": "Leaves the contract without owner. It will not be possible to call `onlyOwner` functions anymore. Can only be called by the current owner. NOTE: Renouncing ownership will leave the contract without an owner, thereby removing any functionality that is only available to the owner."
      },
      "transferOwnership(address)": {
        "details": "Transfers ownership of the contract to a new account (`newOwner`). Can only be called by the current owner."
      }
    },
    "version": 1
  },
  "userdoc": {
    "kind": "user",
    "methods": {},
    "version": 1
  }
}